{
  "_format": "hh-sol-artifact-1",
  "contractName": "corsi",
  "sourceName": "contracts/Corsi.sol",
  "abi": [
    {
      "inputs": [],
      "stateMutability": "nonpayable",
      "type": "constructor"
    },
    {
      "anonymous": false,
      "inputs": [
        {
          "indexed": false,
          "internalType": "address",
          "name": "creatore",
          "type": "address"
        },
        {
          "indexed": false,
          "internalType": "uint256",
          "name": "id",
          "type": "uint256"
        },
        {
          "indexed": false,
          "internalType": "string",
          "name": "hash",
          "type": "string"
        },
        {
          "indexed": false,
          "internalType": "uint256",
          "name": "numeroAcquisti",
          "type": "uint256"
        }
      ],
      "name": "corsoCreato",
      "type": "event"
    },
    {
      "inputs": [
        {
          "internalType": "uint256",
          "name": "idCorso",
          "type": "uint256"
        },
        {
          "internalType": "address",
          "name": "acquirente",
          "type": "address"
        },
        {
          "internalType": "string",
          "name": "link",
          "type": "string"
        }
      ],
      "name": "addAcquisto",
      "outputs": [],
      "stateMutability": "nonpayable",
      "type": "function"
    },
    {
      "inputs": [
        {
          "internalType": "string",
          "name": "_postHash",
          "type": "string"
        }
      ],
      "name": "addCorso",
      "outputs": [],
      "stateMutability": "payable",
      "type": "function"
    },
    {
      "inputs": [
        {
          "internalType": "uint256",
          "name": "idCorso",
          "type": "uint256"
        }
      ],
      "name": "eliminaCorso",
      "outputs": [],
      "stateMutability": "nonpayable",
      "type": "function"
    },
    {
      "inputs": [
        {
          "internalType": "uint256",
          "name": "idCorso",
          "type": "uint256"
        }
      ],
      "name": "getAcquirenti",
      "outputs": [
        {
          "internalType": "address[]",
          "name": "",
          "type": "address[]"
        }
      ],
      "stateMutability": "view",
      "type": "function"
    },
    {
      "inputs": [
        {
          "internalType": "uint256",
          "name": "idCorso",
          "type": "uint256"
        }
      ],
      "name": "getAcquisto",
      "outputs": [
        {
          "internalType": "string",
          "name": "",
          "type": "string"
        }
      ],
      "stateMutability": "view",
      "type": "function"
    },
    {
      "inputs": [],
      "name": "getAllCorsi",
      "outputs": [
        {
          "components": [
            {
              "internalType": "address",
              "name": "creatore",
              "type": "address"
            },
            {
              "internalType": "uint256",
              "name": "id",
              "type": "uint256"
            },
            {
              "internalType": "string",
              "name": "hash",
              "type": "string"
            },
            {
              "internalType": "address[]",
              "name": "acquirenti",
              "type": "address[]"
            },
            {
              "internalType": "string[]",
              "name": "link",
              "type": "string[]"
            },
            {
              "internalType": "uint256",
              "name": "numeroAcquisti",
              "type": "uint256"
            }
          ],
          "internalType": "struct corsi.corso[]",
          "name": "_corsi",
          "type": "tuple[]"
        }
      ],
      "stateMutability": "view",
      "type": "function"
    },
    {
      "inputs": [
        {
          "internalType": "address",
          "name": "userid",
          "type": "address"
        }
      ],
      "name": "getAllCorsiByUserId",
      "outputs": [
        {
          "components": [
            {
              "internalType": "address",
              "name": "creatore",
              "type": "address"
            },
            {
              "internalType": "uint256",
              "name": "id",
              "type": "uint256"
            },
            {
              "internalType": "string",
              "name": "hash",
              "type": "string"
            },
            {
              "internalType": "address[]",
              "name": "acquirenti",
              "type": "address[]"
            },
            {
              "internalType": "string[]",
              "name": "link",
              "type": "string[]"
            },
            {
              "internalType": "uint256",
              "name": "numeroAcquisti",
              "type": "uint256"
            }
          ],
          "internalType": "struct corsi.corso[]",
          "name": "_corsi",
          "type": "tuple[]"
        }
      ],
      "stateMutability": "view",
      "type": "function"
    },
    {
      "inputs": [],
      "name": "getCorsiNumber",
      "outputs": [
        {
          "internalType": "uint256",
          "name": "",
          "type": "uint256"
        }
      ],
      "stateMutability": "view",
      "type": "function"
    },
    {
      "inputs": [
        {
          "internalType": "uint256",
          "name": "id",
          "type": "uint256"
        }
      ],
      "name": "getCorso",
      "outputs": [
        {
          "internalType": "string",
          "name": "",
          "type": "string"
        },
        {
          "internalType": "address",
          "name": "",
          "type": "address"
        }
      ],
      "stateMutability": "view",
      "type": "function"
    },
    {
      "inputs": [
        {
          "internalType": "string",
          "name": "hashCorso",
          "type": "string"
        }
      ],
      "name": "getCorsoByHash",
      "outputs": [
        {
          "internalType": "string",
          "name": "",
          "type": "string"
        }
      ],
      "stateMutability": "view",
      "type": "function"
    },
    {
      "inputs": [
        {
          "internalType": "uint256",
          "name": "idCorso",
          "type": "uint256"
        }
      ],
      "name": "getNumeroAcquisti",
      "outputs": [
        {
          "internalType": "uint256",
          "name": "",
          "type": "uint256"
        }
      ],
      "stateMutability": "view",
      "type": "function"
    },
    {
      "inputs": [
        {
          "internalType": "string",
          "name": "oldHash",
          "type": "string"
        },
        {
          "internalType": "string",
          "name": "newHash",
          "type": "string"
        }
      ],
      "name": "modificaCorso",
      "outputs": [
        {
          "internalType": "string",
          "name": "",
          "type": "string"
        }
      ],
      "stateMutability": "nonpayable",
      "type": "function"
    },
    {
      "inputs": [],
      "name": "owner",
      "outputs": [
        {
          "internalType": "address",
          "name": "",
          "type": "address"
        }
      ],
      "stateMutability": "view",
      "type": "function"
    }
  ],
  "bytecode": "0x608060405234801561001057600080fd5b506000600181905550336000806101000a81548173ffffffffffffffffffffffffffffffffffffffff021916908373ffffffffffffffffffffffffffffffffffffffff1602179055506128fd806100686000396000f3fe6080604052600436106100c25760003560e01c80638da5cb5b1161007f5780639ea6596e116100595780639ea6596e146102925780639fb0395b146102cf578063ab5fea96146102fa578063d6b88eda14610337576100c2565b80638da5cb5b1461020157806392331ab81461022c578063948d602414610269576100c2565b806303bf5fae146100c75780630d53e3351461010457806314dc2dee146101415780634e88bad01461015d5780637a109c21146101865780638d9ad409146101c3575b600080fd5b3480156100d357600080fd5b506100ee60048036038101906100e99190611ba9565b610362565b6040516100fb9190611c8f565b60405180910390f35b34801561011057600080fd5b5061012b60048036038101906101269190611ce7565b6104bd565b6040516101389190611e04565b60405180910390f35b61015b60048036038101906101569190611f56565b6105ca565b005b34801561016957600080fd5b50610184600480360381019061017f9190611fcb565b610792565b005b34801561019257600080fd5b506101ad60048036038101906101a89190611ce7565b6108f0565b6040516101ba9190611c8f565b60405180910390f35b3480156101cf57600080fd5b506101ea60048036038101906101e59190611ce7565b610add565b6040516101f892919061204e565b60405180910390f35b34801561020d57600080fd5b50610216610bfb565b604051610223919061207e565b60405180910390f35b34801561023857600080fd5b50610253600480360381019061024e9190611ce7565b610c1f565b60405161026091906120a8565b60405180910390f35b34801561027557600080fd5b50610290600480360381019061028b9190611ce7565b610cab565b005b34801561029e57600080fd5b506102b960048036038101906102b491906120c3565b610d77565b6040516102c69190611c8f565b60405180910390f35b3480156102db57600080fd5b506102e4610efe565b6040516102f19190612427565b60405180910390f35b34801561030657600080fd5b50610321600480360381019061031c9190612449565b61127d565b60405161032e9190612427565b60405180910390f35b34801561034357600080fd5b5061034c61167d565b60405161035991906120a8565b60405180910390f35b606060005b60015481101561047d577f2d31000000000000000000000000000000000000000000000000000000000000600260008381526020019081526020016000206002016040516020016103b89190612576565b604051602081830303815290604052805190602001201415801561043e575083836040516020016103ea9291906125b2565b60405160208183030381529060405280519060200120600260008381526020019081526020016000206002016040516020016104269190612576565b60405160208183030381529060405280519060200120145b1561046a576104626002600083815260200190815260200160002060010154611687565b9150506104b7565b8080610475906125fa565b915050610367565b506040518060400160405280600281526020017f2d3100000000000000000000000000000000000000000000000000000000000081525090505b92915050565b606060005b6001548110156105c35760006002600083815260200190815260200160002060010154101580156105085750826002600083815260200190815260200160002060010154145b156105b057600260008281526020019081526020016000206003018054806020026020016040519081016040528092919081815260200182805480156105a357602002820191906000526020600020905b8160009054906101000a900473ffffffffffffffffffffffffffffffffffffffff1673ffffffffffffffffffffffffffffffffffffffff1681526020019060010190808311610559575b50505050509150506105c5565b80806105bb906125fa565b9150506104c2565b505b919050565b60006002600060015481526020019081526020016000209050818160020190805190602001906105fb929190611810565b506001548160010181905550338160000160006101000a81548173ffffffffffffffffffffffffffffffffffffffff021916908373ffffffffffffffffffffffffffffffffffffffff16021790555060008160050181905550806002600060015481526020019081526020016000206000820160009054906101000a900473ffffffffffffffffffffffffffffffffffffffff168160000160006101000a81548173ffffffffffffffffffffffffffffffffffffffff021916908373ffffffffffffffffffffffffffffffffffffffff1602179055506001820154816001015560028201816002019080546106ef906124a5565b6106fa929190611896565b506003820181600301908054610711929190611923565b506004820181600401908054610728929190611975565b506005820154816005015590505060016000815480929190610749906125fa565b91905055507f6904116857fe01e32a27b70da0d9f2b479ba061ade30ad838317cfd22f1b8029336001548460006040516107869493929190612688565b60405180910390a15050565b60005b6001548110156108e95760006002600083815260200190815260200160002060010154101580156107db5750846002600083815260200190815260200160002060010154145b156108d65760026000828152602001908152602001600020600301849080600181540180825580915050600190039060005260206000200160009091909190916101000a81548173ffffffffffffffffffffffffffffffffffffffff021916908373ffffffffffffffffffffffffffffffffffffffff16021790555060026000828152602001908152602001600020600501600081548092919061087e906125fa565b9190505550600260008281526020019081526020016000206004018383909180600181540180825580915050600190039060005260206000200160009091929091929091929091925091906108d49291906119dd565b505b80806108e1906125fa565b915050610795565b5050505050565b606060005b600154811015610ad657600060026000838152602001908152602001600020600101541015801561093b5750826002600083815260200190815260200160002060010154145b15610ac35760005b6002600083815260200190815260200160002060030180549050811015610ac1573373ffffffffffffffffffffffffffffffffffffffff166002600084815260200190815260200160002060030182815481106109a3576109a26126d4565b5b9060005260206000200160009054906101000a900473ffffffffffffffffffffffffffffffffffffffff1673ffffffffffffffffffffffffffffffffffffffff161415610aae57600260008381526020019081526020016000206004018181548110610a1257610a116126d4565b5b906000526020600020018054610a27906124a5565b80601f0160208091040260200160405190810160405280929190818152602001828054610a53906124a5565b8015610aa05780601f10610a7557610100808354040283529160200191610aa0565b820191906000526020600020905b815481529060010190602001808311610a8357829003601f168201915b505050505092505050610ad8565b8080610ab9906125fa565b915050610943565b505b8080610ace906125fa565b9150506108f5565b505b919050565b606060006001548310610b25576040517f08c379a0000000000000000000000000000000000000000000000000000000008152600401610b1c90612775565b60405180910390fd5b6000600260008581526020019081526020016000209050806002018160000160009054906101000a900473ffffffffffffffffffffffffffffffffffffffff16818054610b71906124a5565b80601f0160208091040260200160405190810160405280929190818152602001828054610b9d906124a5565b8015610bea5780601f10610bbf57610100808354040283529160200191610bea565b820191906000526020600020905b815481529060010190602001808311610bcd57829003601f168201915b505050505091509250925050915091565b60008054906101000a900473ffffffffffffffffffffffffffffffffffffffff1681565b600080600090505b600154811015610ca4576000600260008381526020019081526020016000206001015410158015610c6d5750826002600083815260200190815260200160002060010154145b15610c91576002600082815260200190815260200160002060050154915050610ca6565b8080610c9c906125fa565b915050610c27565b505b919050565b60005b600154811015610d72576000600260008381526020019081526020016000206001015410158015610cf45750816002600083815260200190815260200160002060010154145b15610d5f576040518060400160405280600281526020017f2d31000000000000000000000000000000000000000000000000000000000000815250600260008381526020019081526020016000206002019080519060200190610d58929190611810565b5050610d74565b8080610d6a906125fa565b915050610cae565b505b50565b606060005b600154811015610ef4576000600260008381526020019081526020016000206001015410158015610e0f57508585604051602001610dbb9291906125b2565b6040516020818303038152906040528051906020012060026000838152602001908152602001600020600201604051602001610df79190612576565b60405160208183030381529060405280519060200120145b15610ee1578383600260008481526020019081526020016000206002019190610e399291906119dd565b50600260008281526020019081526020016000206002018054610e5b906124a5565b80601f0160208091040260200160405190810160405280929190818152602001828054610e87906124a5565b8015610ed45780601f10610ea957610100808354040283529160200191610ed4565b820191906000526020600020905b815481529060010190602001808311610eb757829003601f168201915b5050505050915050610ef6565b8080610eec906125fa565b915050610d7c565b505b949350505050565b606060015467ffffffffffffffff811115610f1c57610f1b611e2b565b5b604051908082528060200260200182016040528015610f5557816020015b610f42611a63565b815260200190600190039081610f3a5790505b50905060005b8151811015611279577f2d3100000000000000000000000000000000000000000000000000000000000060026000838152602001908152602001600020600201604051602001610fab9190612576565b604051602081830303815290604052805190602001201461126657600260008281526020019081526020016000206040518060c00160405290816000820160009054906101000a900473ffffffffffffffffffffffffffffffffffffffff1673ffffffffffffffffffffffffffffffffffffffff1673ffffffffffffffffffffffffffffffffffffffff16815260200160018201548152602001600282018054611054906124a5565b80601f0160208091040260200160405190810160405280929190818152602001828054611080906124a5565b80156110cd5780601f106110a2576101008083540402835291602001916110cd565b820191906000526020600020905b8154815290600101906020018083116110b057829003601f168201915b505050505081526020016003820180548060200260200160405190810160405280929190818152602001828054801561115b57602002820191906000526020600020905b8160009054906101000a900473ffffffffffffffffffffffffffffffffffffffff1673ffffffffffffffffffffffffffffffffffffffff1681526020019060010190808311611111575b5050505050815260200160048201805480602002602001604051908101604052809291908181526020016000905b828210156112355783829060005260206000200180546111a8906124a5565b80601f01602080910402602001604051908101604052809291908181526020018280546111d4906124a5565b80156112215780601f106111f657610100808354040283529160200191611221565b820191906000526020600020905b81548152906001019060200180831161120457829003601f168201915b505050505081526020019060010190611189565b50505050815260200160058201548152505082828151811061125a576112596126d4565b5b60200260200101819052505b8080611271906125fa565b915050610f5b565b5090565b606060015467ffffffffffffffff81111561129b5761129a611e2b565b5b6040519080825280602002602001820160405280156112d457816020015b6112c1611a63565b8152602001906001900390816112b95790505b5090506000805b8251811015611676577f2d310000000000000000000000000000000000000000000000000000000000006002600083815260200190815260200160002060020160405160200161132b9190612576565b60405160208183030381529060405280519060200120141580156113b057508373ffffffffffffffffffffffffffffffffffffffff166002600083815260200190815260200160002060000160009054906101000a900473ffffffffffffffffffffffffffffffffffffffff1673ffffffffffffffffffffffffffffffffffffffff16145b1561166357600260008281526020019081526020016000206040518060c00160405290816000820160009054906101000a900473ffffffffffffffffffffffffffffffffffffffff1673ffffffffffffffffffffffffffffffffffffffff1673ffffffffffffffffffffffffffffffffffffffff16815260200160018201548152602001600282018054611443906124a5565b80601f016020809104026020016040519081016040528092919081815260200182805461146f906124a5565b80156114bc5780601f10611491576101008083540402835291602001916114bc565b820191906000526020600020905b81548152906001019060200180831161149f57829003601f168201915b505050505081526020016003820180548060200260200160405190810160405280929190818152602001828054801561154a57602002820191906000526020600020905b8160009054906101000a900473ffffffffffffffffffffffffffffffffffffffff1673ffffffffffffffffffffffffffffffffffffffff1681526020019060010190808311611500575b5050505050815260200160048201805480602002602001604051908101604052809291908181526020016000905b82821015611624578382906000526020600020018054611597906124a5565b80601f01602080910402602001604051908101604052809291908181526020018280546115c3906124a5565b80156116105780601f106115e557610100808354040283529160200191611610565b820191906000526020600020905b8154815290600101906020018083116115f357829003601f168201915b505050505081526020019060010190611578565b505050508152602001600582015481525050838381518110611649576116486126d4565b5b6020026020010181905250818061165f906125fa565b9250505b808061166e906125fa565b9150506112db565b5050919050565b6000600154905090565b606060008214156116cf576040518060400160405280600181526020017f3000000000000000000000000000000000000000000000000000000000000000815250905061180b565b600082905060005b600082146117015780806116ea906125fa565b915050600a826116fa91906127c4565b91506116d7565b60008167ffffffffffffffff81111561171d5761171c611e2b565b5b6040519080825280601f01601f19166020018201604052801561174f5781602001600182028036833780820191505090505b50905060008290505b600086146118035760018161176d91906127f5565b90506000600a808861177f91906127c4565b6117899190612829565b8761179491906127f5565b60306117a09190612890565b905060008160f81b9050808484815181106117be576117bd6126d4565b5b60200101907effffffffffffffffffffffffffffffffffffffffffffffffffffffffffffff1916908160001a905350600a886117fa91906127c4565b97505050611758565b819450505050505b919050565b82805461181c906124a5565b90600052602060002090601f01602090048101928261183e5760008555611885565b82601f1061185757805160ff1916838001178555611885565b82800160010185558215611885579182015b82811115611884578251825591602001919060010190611869565b5b5090506118929190611aaf565b5090565b8280546118a2906124a5565b90600052602060002090601f0160209004810192826118c45760008555611912565b82601f106118d55780548555611912565b8280016001018555821561191257600052602060002091601f016020900482015b828111156119115782548255916001019190600101906118f6565b5b50905061191f9190611aaf565b5090565b8280548282559060005260206000209081019282156119645760005260206000209182015b82811115611963578254825591600101919060010190611948565b5b5090506119719190611aaf565b5090565b8280548282559060005260206000209081019282156119cc5760005260206000209182015b828111156119cb5782829080546119b0906124a5565b6119bb929190611896565b509160010191906001019061199a565b5b5090506119d99190611acc565b5090565b8280546119e9906124a5565b90600052602060002090601f016020900481019282611a0b5760008555611a52565b82601f10611a2457803560ff1916838001178555611a52565b82800160010185558215611a52579182015b82811115611a51578235825591602001919060010190611a36565b5b509050611a5f9190611aaf565b5090565b6040518060c00160405280600073ffffffffffffffffffffffffffffffffffffffff16815260200160008152602001606081526020016060815260200160608152602001600081525090565b5b80821115611ac8576000816000905550600101611ab0565b5090565b5b80821115611aec5760008181611ae39190611af0565b50600101611acd565b5090565b508054611afc906124a5565b6000825580601f10611b0e5750611b2d565b601f016020900490600052602060002090810190611b2c9190611aaf565b5b50565b6000604051905090565b600080fd5b600080fd5b600080fd5b600080fd5b600080fd5b60008083601f840112611b6957611b68611b44565b5b8235905067ffffffffffffffff811115611b8657611b85611b49565b5b602083019150836001820283011115611ba257611ba1611b4e565b5b9250929050565b60008060208385031215611bc057611bbf611b3a565b5b600083013567ffffffffffffffff811115611bde57611bdd611b3f565b5b611bea85828601611b53565b92509250509250929050565b600081519050919050565b600082825260208201905092915050565b60005b83811015611c30578082015181840152602081019050611c15565b83811115611c3f576000848401525b50505050565b6000601f19601f8301169050919050565b6000611c6182611bf6565b611c6b8185611c01565b9350611c7b818560208601611c12565b611c8481611c45565b840191505092915050565b60006020820190508181036000830152611ca98184611c56565b905092915050565b6000819050919050565b611cc481611cb1565b8114611ccf57600080fd5b50565b600081359050611ce181611cbb565b92915050565b600060208284031215611cfd57611cfc611b3a565b5b6000611d0b84828501611cd2565b91505092915050565b600081519050919050565b600082825260208201905092915050565b6000819050602082019050919050565b600073ffffffffffffffffffffffffffffffffffffffff82169050919050565b6000611d6b82611d40565b9050919050565b611d7b81611d60565b82525050565b6000611d8d8383611d72565b60208301905092915050565b6000602082019050919050565b6000611db182611d14565b611dbb8185611d1f565b9350611dc683611d30565b8060005b83811015611df7578151611dde8882611d81565b9750611de983611d99565b925050600181019050611dca565b5085935050505092915050565b60006020820190508181036000830152611e1e8184611da6565b905092915050565b600080fd5b7f4e487b7100000000000000000000000000000000000000000000000000000000600052604160045260246000fd5b611e6382611c45565b810181811067ffffffffffffffff82111715611e8257611e81611e2b565b5b80604052505050565b6000611e95611b30565b9050611ea18282611e5a565b919050565b600067ffffffffffffffff821115611ec157611ec0611e2b565b5b611eca82611c45565b9050602081019050919050565b82818337600083830152505050565b6000611ef9611ef484611ea6565b611e8b565b905082815260208101848484011115611f1557611f14611e26565b5b611f20848285611ed7565b509392505050565b600082601f830112611f3d57611f3c611b44565b5b8135611f4d848260208601611ee6565b91505092915050565b600060208284031215611f6c57611f6b611b3a565b5b600082013567ffffffffffffffff811115611f8a57611f89611b3f565b5b611f9684828501611f28565b91505092915050565b611fa881611d60565b8114611fb357600080fd5b50565b600081359050611fc581611f9f565b92915050565b60008060008060608587031215611fe557611fe4611b3a565b5b6000611ff387828801611cd2565b945050602061200487828801611fb6565b935050604085013567ffffffffffffffff81111561202557612024611b3f565b5b61203187828801611b53565b925092505092959194509250565b61204881611d60565b82525050565b600060408201905081810360008301526120688185611c56565b9050612077602083018461203f565b9392505050565b6000602082019050612093600083018461203f565b92915050565b6120a281611cb1565b82525050565b60006020820190506120bd6000830184612099565b92915050565b600080600080604085870312156120dd576120dc611b3a565b5b600085013567ffffffffffffffff8111156120fb576120fa611b3f565b5b61210787828801611b53565b9450945050602085013567ffffffffffffffff81111561212a57612129611b3f565b5b61213687828801611b53565b925092505092959194509250565b600081519050919050565b600082825260208201905092915050565b6000819050602082019050919050565b61217981611cb1565b82525050565b600082825260208201905092915050565b600061219b82611bf6565b6121a5818561217f565b93506121b5818560208601611c12565b6121be81611c45565b840191505092915050565b600082825260208201905092915050565b60006121e582611d14565b6121ef81856121c9565b93506121fa83611d30565b8060005b8381101561222b5781516122128882611d81565b975061221d83611d99565b9250506001810190506121fe565b5085935050505092915050565b600081519050919050565b600082825260208201905092915050565b6000819050602082019050919050565b60006122708383612190565b905092915050565b6000602082019050919050565b600061229082612238565b61229a8185612243565b9350836020820285016122ac85612254565b8060005b858110156122e857848403895281516122c98582612264565b94506122d483612278565b925060208a019950506001810190506122b0565b50829750879550505050505092915050565b600060c0830160008301516123126000860182611d72565b5060208301516123256020860182612170565b506040830151848203604086015261233d8282612190565b9150506060830151848203606086015261235782826121da565b915050608083015184820360808601526123718282612285565b91505060a083015161238660a0860182612170565b508091505092915050565b600061239d83836122fa565b905092915050565b6000602082019050919050565b60006123bd82612144565b6123c7818561214f565b9350836020820285016123d985612160565b8060005b8581101561241557848403895281516123f68582612391565b9450612401836123a5565b925060208a019950506001810190506123dd565b50829750879550505050505092915050565b6000602082019050818103600083015261244181846123b2565b905092915050565b60006020828403121561245f5761245e611b3a565b5b600061246d84828501611fb6565b91505092915050565b7f4e487b7100000000000000000000000000000000000000000000000000000000600052602260045260246000fd5b600060028204905060018216806124bd57607f821691505b602082108114156124d1576124d0612476565b5b50919050565b600081905092915050565b60008190508160005260206000209050919050565b60008154612504816124a5565b61250e81866124d7565b94506001821660008114612529576001811461253a5761256d565b60ff1983168652818601935061256d565b612543856124e2565b60005b8381101561256557815481890152600182019150602081019050612546565b838801955050505b50505092915050565b600061258282846124f7565b915081905092915050565b600061259983856124d7565b93506125a6838584611ed7565b82840190509392505050565b60006125bf82848661258d565b91508190509392505050565b7f4e487b7100000000000000000000000000000000000000000000000000000000600052601160045260246000fd5b600061260582611cb1565b91507fffffffffffffffffffffffffffffffffffffffffffffffffffffffffffffffff821415612638576126376125cb565b5b600182019050919050565b6000819050919050565b6000819050919050565b600061267261266d61266884612643565b61264d565b611cb1565b9050919050565b61268281612657565b82525050565b600060808201905061269d600083018761203f565b6126aa6020830186612099565b81810360408301526126bc8185611c56565b90506126cb6060830184612679565b95945050505050565b7f4e487b7100000000000000000000000000000000000000000000000000000000600052603260045260246000fd5b7f4e6f6e2065736973746520756e20636f72736f20636f6e2071756573746f206960008201527f6400000000000000000000000000000000000000000000000000000000000000602082015250565b600061275f602183611c01565b915061276a82612703565b604082019050919050565b6000602082019050818103600083015261278e81612752565b9050919050565b7f4e487b7100000000000000000000000000000000000000000000000000000000600052601260045260246000fd5b60006127cf82611cb1565b91506127da83611cb1565b9250826127ea576127e9612795565b5b828204905092915050565b600061280082611cb1565b915061280b83611cb1565b92508282101561281e5761281d6125cb565b5b828203905092915050565b600061283482611cb1565b915061283f83611cb1565b9250817fffffffffffffffffffffffffffffffffffffffffffffffffffffffffffffffff0483118215151615612878576128776125cb565b5b828202905092915050565b600060ff82169050919050565b600061289b82612883565b91506128a683612883565b92508260ff038211156128bc576128bb6125cb565b5b82820190509291505056fea264697066735822122058480270b184b92d267ab67c234a4e6ad30cff04a7857f6fe18fd913ebc6b62a64736f6c63430008090033",
  "linkReferences": {},
  "deployedLinkReferences": {}
}