{
  "_format": "hh-sol-artifact-1",
  "contractName": "Courses",
  "sourceName": "contracts/Courses.sol",
  "abi": [
    {
      "inputs": [],
      "stateMutability": "nonpayable",
      "type": "constructor"
    },
    {
      "anonymous": false,
      "inputs": [
        {
          "indexed": false,
          "internalType": "address",
          "name": "creator",
          "type": "address"
        },
        {
          "indexed": false,
          "internalType": "uint256",
          "name": "id",
          "type": "uint256"
        },
        {
          "indexed": false,
          "internalType": "string",
          "name": "hash",
          "type": "string"
        },
        {
          "indexed": false,
          "internalType": "uint256",
          "name": "numberOfBuyer",
          "type": "uint256"
        }
      ],
      "name": "courseCreated",
      "type": "event"
    },
    {
      "inputs": [
        {
          "internalType": "string",
          "name": "_postHash",
          "type": "string"
        }
      ],
      "name": "addCourse",
      "outputs": [],
      "stateMutability": "payable",
      "type": "function"
    },
    {
      "inputs": [
        {
          "internalType": "uint256",
          "name": "idCourse",
          "type": "uint256"
        },
        {
          "internalType": "address",
          "name": "buyer",
          "type": "address"
        },
        {
          "internalType": "string",
          "name": "link",
          "type": "string"
        }
      ],
      "name": "addPurchase",
      "outputs": [],
      "stateMutability": "nonpayable",
      "type": "function"
    },
    {
      "inputs": [
        {
          "internalType": "uint256",
          "name": "idCourse",
          "type": "uint256"
        }
      ],
      "name": "deleteCourse",
      "outputs": [],
      "stateMutability": "nonpayable",
      "type": "function"
    },
    {
      "inputs": [],
      "name": "getAllCourses",
      "outputs": [
        {
          "components": [
            {
              "internalType": "address",
              "name": "creator",
              "type": "address"
            },
            {
              "internalType": "uint256",
              "name": "id",
              "type": "uint256"
            },
            {
              "internalType": "string",
              "name": "hash",
              "type": "string"
            },
            {
              "internalType": "address[]",
              "name": "buyer",
              "type": "address[]"
            },
            {
              "internalType": "string[]",
              "name": "link",
              "type": "string[]"
            },
            {
              "internalType": "uint256",
              "name": "numberOfBuyer",
              "type": "uint256"
            }
          ],
          "internalType": "struct Courses.course[]",
          "name": "_courses",
          "type": "tuple[]"
        }
      ],
      "stateMutability": "view",
      "type": "function"
    },
    {
      "inputs": [
        {
          "internalType": "address",
          "name": "userid",
          "type": "address"
        }
      ],
      "name": "getAllCoursesByUserId",
      "outputs": [
        {
          "components": [
            {
              "internalType": "address",
              "name": "creator",
              "type": "address"
            },
            {
              "internalType": "uint256",
              "name": "id",
              "type": "uint256"
            },
            {
              "internalType": "string",
              "name": "hash",
              "type": "string"
            },
            {
              "internalType": "address[]",
              "name": "buyer",
              "type": "address[]"
            },
            {
              "internalType": "string[]",
              "name": "link",
              "type": "string[]"
            },
            {
              "internalType": "uint256",
              "name": "numberOfBuyer",
              "type": "uint256"
            }
          ],
          "internalType": "struct Courses.course[]",
          "name": "_courses",
          "type": "tuple[]"
        }
      ],
      "stateMutability": "view",
      "type": "function"
    },
    {
      "inputs": [
        {
          "internalType": "uint256",
          "name": "idCourse",
          "type": "uint256"
        }
      ],
      "name": "getBuyer",
      "outputs": [
        {
          "internalType": "address[]",
          "name": "",
          "type": "address[]"
        }
      ],
      "stateMutability": "view",
      "type": "function"
    },
    {
      "inputs": [
        {
          "internalType": "uint256",
          "name": "id",
          "type": "uint256"
        }
      ],
      "name": "getCourse",
      "outputs": [
        {
          "internalType": "string",
          "name": "",
          "type": "string"
        },
        {
          "internalType": "address",
          "name": "",
          "type": "address"
        }
      ],
      "stateMutability": "view",
      "type": "function"
    },
    {
      "inputs": [
        {
          "internalType": "string",
          "name": "hashCourse",
          "type": "string"
        }
      ],
      "name": "getCourseByHash",
      "outputs": [
        {
          "internalType": "string",
          "name": "",
          "type": "string"
        }
      ],
      "stateMutability": "view",
      "type": "function"
    },
    {
      "inputs": [],
      "name": "getCoursesNumber",
      "outputs": [
        {
          "internalType": "uint256",
          "name": "",
          "type": "uint256"
        }
      ],
      "stateMutability": "view",
      "type": "function"
    },
    {
      "inputs": [
        {
          "internalType": "uint256",
          "name": "idCourse",
          "type": "uint256"
        }
      ],
      "name": "getNumberPurchase",
      "outputs": [
        {
          "internalType": "uint256",
          "name": "",
          "type": "uint256"
        }
      ],
      "stateMutability": "view",
      "type": "function"
    },
    {
      "inputs": [
        {
          "internalType": "uint256",
          "name": "idCourse",
          "type": "uint256"
        }
      ],
      "name": "getPurchase",
      "outputs": [
        {
          "internalType": "string",
          "name": "",
          "type": "string"
        }
      ],
      "stateMutability": "view",
      "type": "function"
    },
    {
      "inputs": [
        {
          "internalType": "string",
          "name": "oldHash",
          "type": "string"
        },
        {
          "internalType": "string",
          "name": "newHash",
          "type": "string"
        }
      ],
      "name": "modifyCourse",
      "outputs": [
        {
          "internalType": "string",
          "name": "",
          "type": "string"
        }
      ],
      "stateMutability": "nonpayable",
      "type": "function"
    },
    {
      "inputs": [],
      "name": "owner",
      "outputs": [
        {
          "internalType": "address",
          "name": "",
          "type": "address"
        }
      ],
      "stateMutability": "view",
      "type": "function"
    }
  ],
  "bytecode": "0x608060405234801561001057600080fd5b506000600181905550336000806101000a81548173ffffffffffffffffffffffffffffffffffffffff021916908373ffffffffffffffffffffffffffffffffffffffff1602179055506128fd806100686000396000f3fe6080604052600436106100c25760003560e01c8063517f011e1161007f5780636bdab0bc116100595780636bdab0bc146102945780638da5cb5b146102d15780639dad8d22146102fc578063d6e32d7b14610325576100c2565b8063517f011e146101dd5780635bf608b81461021a5780635dccffd314610257576100c2565b806304e48bd1146100c7578063073c306d146100f25780630b91e28d1461011b578063224a99d7146101595780632e554076146101845780633742a9f7146101a0575b600080fd5b3480156100d357600080fd5b506100dc610362565b6040516100e99190611eed565b60405180910390f35b3480156100fe57600080fd5b5061011960048036038101906101149190611fe0565b6106e1565b005b34801561012757600080fd5b50610142600480360381019061013d9190612054565b61083f565b6040516101509291906120da565b60405180910390f35b34801561016557600080fd5b5061016e61095d565b60405161017b9190612119565b60405180910390f35b61019e60048036038101906101999190612264565b610967565b005b3480156101ac57600080fd5b506101c760048036038101906101c29190612054565b610b2f565b6040516101d491906122ad565b60405180910390f35b3480156101e957600080fd5b5061020460048036038101906101ff91906122cf565b610d1c565b60405161021191906122ad565b60405180910390f35b34801561022657600080fd5b50610241600480360381019061023c9190612054565b610e77565b60405161024e919061238b565b60405180910390f35b34801561026357600080fd5b5061027e600480360381019061027991906123ad565b610f84565b60405161028b9190611eed565b60405180910390f35b3480156102a057600080fd5b506102bb60048036038101906102b69190612054565b611384565b6040516102c89190612119565b60405180910390f35b3480156102dd57600080fd5b506102e6611410565b6040516102f391906123da565b60405180910390f35b34801561030857600080fd5b50610323600480360381019061031e9190612054565b611434565b005b34801561033157600080fd5b5061034c600480360381019061034791906123f5565b611500565b60405161035991906122ad565b60405180910390f35b606060015467ffffffffffffffff8111156103805761037f612139565b5b6040519080825280602002602001820160405280156103b957816020015b6103a6611810565b81526020019060019003908161039e5790505b50905060005b81518110156106dd577f2d310000000000000000000000000000000000000000000000000000000000006002600083815260200190815260200160002060020160405160200161040f9190612576565b60405160208183030381529060405280519060200120146106ca57600260008281526020019081526020016000206040518060c00160405290816000820160009054906101000a900473ffffffffffffffffffffffffffffffffffffffff1673ffffffffffffffffffffffffffffffffffffffff1673ffffffffffffffffffffffffffffffffffffffff168152602001600182015481526020016002820180546104b8906124a5565b80601f01602080910402602001604051908101604052809291908181526020018280546104e4906124a5565b80156105315780601f1061050657610100808354040283529160200191610531565b820191906000526020600020905b81548152906001019060200180831161051457829003601f168201915b50505050508152602001600382018054806020026020016040519081016040528092919081815260200182805480156105bf57602002820191906000526020600020905b8160009054906101000a900473ffffffffffffffffffffffffffffffffffffffff1673ffffffffffffffffffffffffffffffffffffffff1681526020019060010190808311610575575b5050505050815260200160048201805480602002602001604051908101604052809291908181526020016000905b8282101561069957838290600052602060002001805461060c906124a5565b80601f0160208091040260200160405190810160405280929190818152602001828054610638906124a5565b80156106855780601f1061065a57610100808354040283529160200191610685565b820191906000526020600020905b81548152906001019060200180831161066857829003601f168201915b5050505050815260200190600101906105ed565b5050505081526020016005820154815250508282815181106106be576106bd61258d565b5b60200260200101819052505b80806106d5906125eb565b9150506103bf565b5090565b60005b60015481101561083857600060026000838152602001908152602001600020600101541015801561072a5750846002600083815260200190815260200160002060010154145b156108255760026000828152602001908152602001600020600301849080600181540180825580915050600190039060005260206000200160009091909190916101000a81548173ffffffffffffffffffffffffffffffffffffffff021916908373ffffffffffffffffffffffffffffffffffffffff1602179055506002600082815260200190815260200160002060050160008154809291906107cd906125eb565b91905055506002600082815260200190815260200160002060040183839091806001815401808255809150506001900390600052602060002001600090919290919290919290919250919061082392919061185c565b505b8080610830906125eb565b9150506106e4565b5050505050565b606060006001548310610887576040517f08c379a000000000000000000000000000000000000000000000000000000000815260040161087e906126a6565b60405180910390fd5b6000600260008581526020019081526020016000209050806002018160000160009054906101000a900473ffffffffffffffffffffffffffffffffffffffff168180546108d3906124a5565b80601f01602080910402602001604051908101604052809291908181526020018280546108ff906124a5565b801561094c5780601f106109215761010080835404028352916020019161094c565b820191906000526020600020905b81548152906001019060200180831161092f57829003601f168201915b505050505091509250925050915091565b6000600154905090565b60006002600060015481526020019081526020016000209050818160020190805190602001906109989291906118e2565b506001548160010181905550338160000160006101000a81548173ffffffffffffffffffffffffffffffffffffffff021916908373ffffffffffffffffffffffffffffffffffffffff16021790555060008160050181905550806002600060015481526020019081526020016000206000820160009054906101000a900473ffffffffffffffffffffffffffffffffffffffff168160000160006101000a81548173ffffffffffffffffffffffffffffffffffffffff021916908373ffffffffffffffffffffffffffffffffffffffff160217905550600182015481600101556002820181600201908054610a8c906124a5565b610a97929190611968565b506003820181600301908054610aae9291906119f5565b506004820181600401908054610ac5929190611a47565b506005820154816005015590505060016000815480929190610ae6906125eb565b91905055507f951ed3c05ea086e0bd61141087533b762dcd8402942c77b6082b0adfd628a86b33600154846000604051610b23949392919061270b565b60405180910390a15050565b606060005b600154811015610d15576000600260008381526020019081526020016000206001015410158015610b7a5750826002600083815260200190815260200160002060010154145b15610d025760005b6002600083815260200190815260200160002060030180549050811015610d00573373ffffffffffffffffffffffffffffffffffffffff16600260008481526020019081526020016000206003018281548110610be257610be161258d565b5b9060005260206000200160009054906101000a900473ffffffffffffffffffffffffffffffffffffffff1673ffffffffffffffffffffffffffffffffffffffff161415610ced57600260008381526020019081526020016000206004018181548110610c5157610c5061258d565b5b906000526020600020018054610c66906124a5565b80601f0160208091040260200160405190810160405280929190818152602001828054610c92906124a5565b8015610cdf5780601f10610cb457610100808354040283529160200191610cdf565b820191906000526020600020905b815481529060010190602001808311610cc257829003601f168201915b505050505092505050610d17565b8080610cf8906125eb565b915050610b82565b505b8080610d0d906125eb565b915050610b34565b505b919050565b606060005b600154811015610e37577f2d3100000000000000000000000000000000000000000000000000000000000060026000838152602001908152602001600020600201604051602001610d729190612576565b6040516020818303038152906040528051906020012014158015610df857508383604051602001610da492919061277c565b6040516020818303038152906040528051906020012060026000838152602001908152602001600020600201604051602001610de09190612576565b60405160208183030381529060405280519060200120145b15610e2457610e1c6002600083815260200190815260200160002060010154611687565b915050610e71565b8080610e2f906125eb565b915050610d21565b506040518060400160405280600281526020017f2d3100000000000000000000000000000000000000000000000000000000000081525090505b92915050565b606060005b600154811015610f7d576000600260008381526020019081526020016000206001015410158015610ec25750826002600083815260200190815260200160002060010154145b15610f6a5760026000828152602001908152602001600020600301805480602002602001604051908101604052809291908181526020018280548015610f5d57602002820191906000526020600020905b8160009054906101000a900473ffffffffffffffffffffffffffffffffffffffff1673ffffffffffffffffffffffffffffffffffffffff1681526020019060010190808311610f13575b5050505050915050610f7f565b8080610f75906125eb565b915050610e7c565b505b919050565b606060015467ffffffffffffffff811115610fa257610fa1612139565b5b604051908082528060200260200182016040528015610fdb57816020015b610fc8611810565b815260200190600190039081610fc05790505b5090506000805b825181101561137d577f2d31000000000000000000000000000000000000000000000000000000000000600260008381526020019081526020016000206002016040516020016110329190612576565b60405160208183030381529060405280519060200120141580156110b757508373ffffffffffffffffffffffffffffffffffffffff166002600083815260200190815260200160002060000160009054906101000a900473ffffffffffffffffffffffffffffffffffffffff1673ffffffffffffffffffffffffffffffffffffffff16145b1561136a57600260008281526020019081526020016000206040518060c00160405290816000820160009054906101000a900473ffffffffffffffffffffffffffffffffffffffff1673ffffffffffffffffffffffffffffffffffffffff1673ffffffffffffffffffffffffffffffffffffffff1681526020016001820154815260200160028201805461114a906124a5565b80601f0160208091040260200160405190810160405280929190818152602001828054611176906124a5565b80156111c35780601f10611198576101008083540402835291602001916111c3565b820191906000526020600020905b8154815290600101906020018083116111a657829003601f168201915b505050505081526020016003820180548060200260200160405190810160405280929190818152602001828054801561125157602002820191906000526020600020905b8160009054906101000a900473ffffffffffffffffffffffffffffffffffffffff1673ffffffffffffffffffffffffffffffffffffffff1681526020019060010190808311611207575b5050505050815260200160048201805480602002602001604051908101604052809291908181526020016000905b8282101561132b57838290600052602060002001805461129e906124a5565b80601f01602080910402602001604051908101604052809291908181526020018280546112ca906124a5565b80156113175780601f106112ec57610100808354040283529160200191611317565b820191906000526020600020905b8154815290600101906020018083116112fa57829003601f168201915b50505050508152602001906001019061127f565b5050505081526020016005820154815250508383815181106113505761134f61258d565b5b60200260200101819052508180611366906125eb565b9250505b8080611375906125eb565b915050610fe2565b5050919050565b600080600090505b6001548110156114095760006002600083815260200190815260200160002060010154101580156113d25750826002600083815260200190815260200160002060010154145b156113f657600260008281526020019081526020016000206005015491505061140b565b8080611401906125eb565b91505061138c565b505b919050565b60008054906101000a900473ffffffffffffffffffffffffffffffffffffffff1681565b60005b6001548110156114fb57600060026000838152602001908152602001600020600101541015801561147d5750816002600083815260200190815260200160002060010154145b156114e8576040518060400160405280600281526020017f2d310000000000000000000000000000000000000000000000000000000000008152506002600083815260200190815260200160002060020190805190602001906114e19291906118e2565b50506114fd565b80806114f3906125eb565b915050611437565b505b50565b606060005b60015481101561167d5760006002600083815260200190815260200160002060010154101580156115985750858560405160200161154492919061277c565b60405160208183030381529060405280519060200120600260008381526020019081526020016000206002016040516020016115809190612576565b60405160208183030381529060405280519060200120145b1561166a5783836002600084815260200190815260200160002060020191906115c292919061185c565b506002600082815260200190815260200160002060020180546115e4906124a5565b80601f0160208091040260200160405190810160405280929190818152602001828054611610906124a5565b801561165d5780601f106116325761010080835404028352916020019161165d565b820191906000526020600020905b81548152906001019060200180831161164057829003601f168201915b505050505091505061167f565b8080611675906125eb565b915050611505565b505b949350505050565b606060008214156116cf576040518060400160405280600181526020017f3000000000000000000000000000000000000000000000000000000000000000815250905061180b565b600082905060005b600082146117015780806116ea906125eb565b915050600a826116fa91906127c4565b91506116d7565b60008167ffffffffffffffff81111561171d5761171c612139565b5b6040519080825280601f01601f19166020018201604052801561174f5781602001600182028036833780820191505090505b50905060008290505b600086146118035760018161176d91906127f5565b90506000600a808861177f91906127c4565b6117899190612829565b8761179491906127f5565b60306117a09190612890565b905060008160f81b9050808484815181106117be576117bd61258d565b5b60200101907effffffffffffffffffffffffffffffffffffffffffffffffffffffffffffff1916908160001a905350600a886117fa91906127c4565b97505050611758565b819450505050505b919050565b6040518060c00160405280600073ffffffffffffffffffffffffffffffffffffffff16815260200160008152602001606081526020016060815260200160608152602001600081525090565b828054611868906124a5565b90600052602060002090601f01602090048101928261188a57600085556118d1565b82601f106118a357803560ff19168380011785556118d1565b828001600101855582156118d1579182015b828111156118d05782358255916020019190600101906118b5565b5b5090506118de9190611aaf565b5090565b8280546118ee906124a5565b90600052602060002090601f0160209004810192826119105760008555611957565b82601f1061192957805160ff1916838001178555611957565b82800160010185558215611957579182015b8281111561195657825182559160200191906001019061193b565b5b5090506119649190611aaf565b5090565b828054611974906124a5565b90600052602060002090601f01602090048101928261199657600085556119e4565b82601f106119a757805485556119e4565b828001600101855582156119e457600052602060002091601f016020900482015b828111156119e35782548255916001019190600101906119c8565b5b5090506119f19190611aaf565b5090565b828054828255906000526020600020908101928215611a365760005260206000209182015b82811115611a35578254825591600101919060010190611a1a565b5b509050611a439190611aaf565b5090565b828054828255906000526020600020908101928215611a9e5760005260206000209182015b82811115611a9d578282908054611a82906124a5565b611a8d929190611968565b5091600101919060010190611a6c565b5b509050611aab9190611acc565b5090565b5b80821115611ac8576000816000905550600101611ab0565b5090565b5b80821115611aec5760008181611ae39190611af0565b50600101611acd565b5090565b508054611afc906124a5565b6000825580601f10611b0e5750611b2d565b601f016020900490600052602060002090810190611b2c9190611aaf565b5b50565b600081519050919050565b600082825260208201905092915050565b6000819050602082019050919050565b600073ffffffffffffffffffffffffffffffffffffffff82169050919050565b6000611b8782611b5c565b9050919050565b611b9781611b7c565b82525050565b6000819050919050565b611bb081611b9d565b82525050565b600081519050919050565b600082825260208201905092915050565b60005b83811015611bf0578082015181840152602081019050611bd5565b83811115611bff576000848401525b50505050565b6000601f19601f8301169050919050565b6000611c2182611bb6565b611c2b8185611bc1565b9350611c3b818560208601611bd2565b611c4481611c05565b840191505092915050565b600081519050919050565b600082825260208201905092915050565b6000819050602082019050919050565b6000611c878383611b8e565b60208301905092915050565b6000602082019050919050565b6000611cab82611c4f565b611cb58185611c5a565b9350611cc083611c6b565b8060005b83811015611cf1578151611cd88882611c7b565b9750611ce383611c93565b925050600181019050611cc4565b5085935050505092915050565b600081519050919050565b600082825260208201905092915050565b6000819050602082019050919050565b6000611d368383611c16565b905092915050565b6000602082019050919050565b6000611d5682611cfe565b611d608185611d09565b935083602082028501611d7285611d1a565b8060005b85811015611dae5784840389528151611d8f8582611d2a565b9450611d9a83611d3e565b925060208a01995050600181019050611d76565b50829750879550505050505092915050565b600060c083016000830151611dd86000860182611b8e565b506020830151611deb6020860182611ba7565b5060408301518482036040860152611e038282611c16565b91505060608301518482036060860152611e1d8282611ca0565b91505060808301518482036080860152611e378282611d4b565b91505060a0830151611e4c60a0860182611ba7565b508091505092915050565b6000611e638383611dc0565b905092915050565b6000602082019050919050565b6000611e8382611b30565b611e8d8185611b3b565b935083602082028501611e9f85611b4c565b8060005b85811015611edb5784840389528151611ebc8582611e57565b9450611ec783611e6b565b925060208a01995050600181019050611ea3565b50829750879550505050505092915050565b60006020820190508181036000830152611f078184611e78565b905092915050565b6000604051905090565b600080fd5b600080fd5b611f2c81611b9d565b8114611f3757600080fd5b50565b600081359050611f4981611f23565b92915050565b611f5881611b7c565b8114611f6357600080fd5b50565b600081359050611f7581611f4f565b92915050565b600080fd5b600080fd5b600080fd5b60008083601f840112611fa057611f9f611f7b565b5b8235905067ffffffffffffffff811115611fbd57611fbc611f80565b5b602083019150836001820283011115611fd957611fd8611f85565b5b9250929050565b60008060008060608587031215611ffa57611ff9611f19565b5b600061200887828801611f3a565b945050602061201987828801611f66565b935050604085013567ffffffffffffffff81111561203a57612039611f1e565b5b61204687828801611f8a565b925092505092959194509250565b60006020828403121561206a57612069611f19565b5b600061207884828501611f3a565b91505092915050565b600082825260208201905092915050565b600061209d82611bb6565b6120a78185612081565b93506120b7818560208601611bd2565b6120c081611c05565b840191505092915050565b6120d481611b7c565b82525050565b600060408201905081810360008301526120f48185612092565b905061210360208301846120cb565b9392505050565b61211381611b9d565b82525050565b600060208201905061212e600083018461210a565b92915050565b600080fd5b7f4e487b7100000000000000000000000000000000000000000000000000000000600052604160045260246000fd5b61217182611c05565b810181811067ffffffffffffffff821117156121905761218f612139565b5b80604052505050565b60006121a3611f0f565b90506121af8282612168565b919050565b600067ffffffffffffffff8211156121cf576121ce612139565b5b6121d882611c05565b9050602081019050919050565b82818337600083830152505050565b6000612207612202846121b4565b612199565b90508281526020810184848401111561222357612222612134565b5b61222e8482856121e5565b509392505050565b600082601f83011261224b5761224a611f7b565b5b813561225b8482602086016121f4565b91505092915050565b60006020828403121561227a57612279611f19565b5b600082013567ffffffffffffffff81111561229857612297611f1e565b5b6122a484828501612236565b91505092915050565b600060208201905081810360008301526122c78184612092565b905092915050565b600080602083850312156122e6576122e5611f19565b5b600083013567ffffffffffffffff81111561230457612303611f1e565b5b61231085828601611f8a565b92509250509250929050565b600082825260208201905092915050565b600061233882611c4f565b612342818561231c565b935061234d83611c6b565b8060005b8381101561237e5781516123658882611c7b565b975061237083611c93565b925050600181019050612351565b5085935050505092915050565b600060208201905081810360008301526123a5818461232d565b905092915050565b6000602082840312156123c3576123c2611f19565b5b60006123d184828501611f66565b91505092915050565b60006020820190506123ef60008301846120cb565b92915050565b6000806000806040858703121561240f5761240e611f19565b5b600085013567ffffffffffffffff81111561242d5761242c611f1e565b5b61243987828801611f8a565b9450945050602085013567ffffffffffffffff81111561245c5761245b611f1e565b5b61246887828801611f8a565b925092505092959194509250565b7f4e487b7100000000000000000000000000000000000000000000000000000000600052602260045260246000fd5b600060028204905060018216806124bd57607f821691505b602082108114156124d1576124d0612476565b5b50919050565b600081905092915050565b60008190508160005260206000209050919050565b60008154612504816124a5565b61250e81866124d7565b94506001821660008114612529576001811461253a5761256d565b60ff1983168652818601935061256d565b612543856124e2565b60005b8381101561256557815481890152600182019150602081019050612546565b838801955050505b50505092915050565b600061258282846124f7565b915081905092915050565b7f4e487b7100000000000000000000000000000000000000000000000000000000600052603260045260246000fd5b7f4e487b7100000000000000000000000000000000000000000000000000000000600052601160045260246000fd5b60006125f682611b9d565b91507fffffffffffffffffffffffffffffffffffffffffffffffffffffffffffffffff821415612629576126286125bc565b5b600182019050919050565b7f4e6f6e2065736973746520756e20636f7572736520636f6e2071756573746f2060008201527f6964000000000000000000000000000000000000000000000000000000000000602082015250565b6000612690602283612081565b915061269b82612634565b604082019050919050565b600060208201905081810360008301526126bf81612683565b9050919050565b6000819050919050565b6000819050919050565b60006126f56126f06126eb846126c6565b6126d0565b611b9d565b9050919050565b612705816126da565b82525050565b600060808201905061272060008301876120cb565b61272d602083018661210a565b818103604083015261273f8185612092565b905061274e60608301846126fc565b95945050505050565b600061276383856124d7565b93506127708385846121e5565b82840190509392505050565b6000612789828486612757565b91508190509392505050565b7f4e487b7100000000000000000000000000000000000000000000000000000000600052601260045260246000fd5b60006127cf82611b9d565b91506127da83611b9d565b9250826127ea576127e9612795565b5b828204905092915050565b600061280082611b9d565b915061280b83611b9d565b92508282101561281e5761281d6125bc565b5b828203905092915050565b600061283482611b9d565b915061283f83611b9d565b9250817fffffffffffffffffffffffffffffffffffffffffffffffffffffffffffffffff0483118215151615612878576128776125bc565b5b828202905092915050565b600060ff82169050919050565b600061289b82612883565b91506128a683612883565b92508260ff038211156128bc576128bb6125bc565b5b82820190509291505056fea2646970667358221220e3239c8626ede17befbc265ccddcaa7aa6aeb1d79266d30706b52e428cc0924864736f6c63430008090033",
  "linkReferences": {},
  "deployedLinkReferences": {}
}