{
  "_format": "hh-sol-artifact-1",
  "contractName": "recensioni",
  "sourceName": "contracts/Recensioni.sol",
  "abi": [
    {
      "inputs": [],
      "stateMutability": "nonpayable",
      "type": "constructor"
    },
    {
      "anonymous": false,
      "inputs": [
        {
          "indexed": false,
          "internalType": "address",
          "name": "creatore",
          "type": "address"
        },
        {
          "indexed": false,
          "internalType": "address",
          "name": "recensito",
          "type": "address"
        },
        {
          "indexed": false,
          "internalType": "uint256",
          "name": "id",
          "type": "uint256"
        },
        {
          "indexed": false,
          "internalType": "string",
          "name": "hash",
          "type": "string"
        }
      ],
      "name": "recensioneCreata",
      "type": "event"
    },
    {
      "inputs": [
        {
          "internalType": "string",
          "name": "_postHash",
          "type": "string"
        },
        {
          "internalType": "address",
          "name": "recensito",
          "type": "address"
        }
      ],
      "name": "addRecensione",
      "outputs": [],
      "stateMutability": "nonpayable",
      "type": "function"
    },
    {
      "inputs": [
        {
          "internalType": "uint256",
          "name": "idRecensione",
          "type": "uint256"
        }
      ],
      "name": "eliminaRecensione",
      "outputs": [],
      "stateMutability": "nonpayable",
      "type": "function"
    },
    {
      "inputs": [],
      "name": "getAllRecensioni",
      "outputs": [
        {
          "components": [
            {
              "internalType": "address",
              "name": "creatore",
              "type": "address"
            },
            {
              "internalType": "address",
              "name": "recensito",
              "type": "address"
            },
            {
              "internalType": "uint256",
              "name": "id",
              "type": "uint256"
            },
            {
              "internalType": "string",
              "name": "hash",
              "type": "string"
            }
          ],
          "internalType": "struct recensioni.recensione[]",
          "name": "_recensioni",
          "type": "tuple[]"
        }
      ],
      "stateMutability": "view",
      "type": "function"
    },
    {
      "inputs": [
        {
          "internalType": "address",
          "name": "userid",
          "type": "address"
        }
      ],
      "name": "getAllRecensioniByUserId",
      "outputs": [
        {
          "components": [
            {
              "internalType": "address",
              "name": "creatore",
              "type": "address"
            },
            {
              "internalType": "address",
              "name": "recensito",
              "type": "address"
            },
            {
              "internalType": "uint256",
              "name": "id",
              "type": "uint256"
            },
            {
              "internalType": "string",
              "name": "hash",
              "type": "string"
            }
          ],
          "internalType": "struct recensioni.recensione[]",
          "name": "_recensioni",
          "type": "tuple[]"
        }
      ],
      "stateMutability": "view",
      "type": "function"
    },
    {
      "inputs": [
        {
          "internalType": "uint256",
          "name": "id",
          "type": "uint256"
        }
      ],
      "name": "getRecensione",
      "outputs": [
        {
          "internalType": "string",
          "name": "",
          "type": "string"
        },
        {
          "internalType": "address",
          "name": "",
          "type": "address"
        }
      ],
      "stateMutability": "view",
      "type": "function"
    },
    {
      "inputs": [],
      "name": "getRecensioniNumber",
      "outputs": [
        {
          "internalType": "uint256",
          "name": "",
          "type": "uint256"
        }
      ],
      "stateMutability": "view",
      "type": "function"
    },
    {
      "inputs": [
        {
          "internalType": "string",
          "name": "oldHash",
          "type": "string"
        },
        {
          "internalType": "string",
          "name": "newHash",
          "type": "string"
        }
      ],
      "name": "modificaRecensione",
      "outputs": [
        {
          "internalType": "string",
          "name": "",
          "type": "string"
        }
      ],
      "stateMutability": "nonpayable",
      "type": "function"
    },
    {
      "inputs": [],
      "name": "owner",
      "outputs": [
        {
          "internalType": "address",
          "name": "",
          "type": "address"
        }
      ],
      "stateMutability": "view",
      "type": "function"
    }
  ],
  "bytecode": "0x608060405234801561001057600080fd5b506000600181905550336000806101000a81548173ffffffffffffffffffffffffffffffffffffffff021916908373ffffffffffffffffffffffffffffffffffffffff16021790555061177a806100686000396000f3fe608060405234801561001057600080fd5b50600436106100885760003560e01c80638da5cb5b1161005b5780638da5cb5b146101145780639d8b24ed14610132578063a64e035814610162578063d44f2cde1461018057610088565b806323bd54d21461008d5780634ac0bf08146100a95780638032ebd0146100da57806384a38103146100f6575b600080fd5b6100a760048036038101906100a29190610e52565b6101b0565b005b6100c360048036038101906100be9190610e52565b61027c565b6040516100d1929190610f59565b60405180910390f35b6100f460048036038101906100ef91906110ea565b61039a565b005b6100fe6105ca565b60405161010b9190611155565b60405180910390f35b61011c6105d4565b6040516101299190611170565b60405180910390f35b61014c6004803603810190610147919061118b565b6105f8565b6040516101599190611345565b60405180910390f35b61016a610876565b6040516101779190611345565b60405180910390f35b61019a600480360381019061019591906113c7565b610a77565b6040516101a79190611448565b60405180910390f35b60005b6001548110156102775760006002600083815260200190815260200160002060020154101580156101f95750816002600083815260200190815260200160002060020154145b15610264576040518060400160405280600281526020017f2d3100000000000000000000000000000000000000000000000000000000000081525060026000838152602001908152602001600020600301908051906020019061025d929190610bfe565b5050610279565b808061026f90611499565b9150506101b3565b505b50565b6060600060015483106102c4576040517f08c379a00000000000000000000000000000000000000000000000000000000081526004016102bb90611554565b60405180910390fd5b6000600260008581526020019081526020016000209050806003018160000160009054906101000a900473ffffffffffffffffffffffffffffffffffffffff16818054610310906115a3565b80601f016020809104026020016040519081016040528092919081815260200182805461033c906115a3565b80156103895780601f1061035e57610100808354040283529160200191610389565b820191906000526020600020905b81548152906001019060200180831161036c57829003601f168201915b505050505091509250925050915091565b60006002600060015481526020019081526020016000209050828160030190805190602001906103cb929190610bfe565b506001548160020181905550338160000160006101000a81548173ffffffffffffffffffffffffffffffffffffffff021916908373ffffffffffffffffffffffffffffffffffffffff160217905550818160010160006101000a81548173ffffffffffffffffffffffffffffffffffffffff021916908373ffffffffffffffffffffffffffffffffffffffff160217905550806002600060015481526020019081526020016000206000820160009054906101000a900473ffffffffffffffffffffffffffffffffffffffff168160000160006101000a81548173ffffffffffffffffffffffffffffffffffffffff021916908373ffffffffffffffffffffffffffffffffffffffff1602179055506001820160009054906101000a900473ffffffffffffffffffffffffffffffffffffffff168160010160006101000a81548173ffffffffffffffffffffffffffffffffffffffff021916908373ffffffffffffffffffffffffffffffffffffffff16021790555060028201548160020155600382018160030190805461055f906115a3565b61056a929190610c84565b509050506001600081548092919061058190611499565b91905055507f1f5486bc92c01947b06a4f07e10e8e3b26a16c8445224498552fc3a6930967f83383600154866040516105bd94939291906115d5565b60405180910390a1505050565b6000600154905090565b60008054906101000a900473ffffffffffffffffffffffffffffffffffffffff1681565b606060015467ffffffffffffffff81111561061657610615610f93565b5b60405190808252806020026020018201604052801561064f57816020015b61063c610d11565b8152602001906001900390816106345790505b5090506000805b825181101561086f578373ffffffffffffffffffffffffffffffffffffffff166002600083815260200190815260200160002060010160009054906101000a900473ffffffffffffffffffffffffffffffffffffffff1673ffffffffffffffffffffffffffffffffffffffff16141561085c57600260008281526020019081526020016000206040518060800160405290816000820160009054906101000a900473ffffffffffffffffffffffffffffffffffffffff1673ffffffffffffffffffffffffffffffffffffffff1673ffffffffffffffffffffffffffffffffffffffff1681526020016001820160009054906101000a900473ffffffffffffffffffffffffffffffffffffffff1673ffffffffffffffffffffffffffffffffffffffff1673ffffffffffffffffffffffffffffffffffffffff168152602001600282015481526020016003820180546107ad906115a3565b80601f01602080910402602001604051908101604052809291908181526020018280546107d9906115a3565b80156108265780601f106107fb57610100808354040283529160200191610826565b820191906000526020600020905b81548152906001019060200180831161080957829003601f168201915b50505050508152505083838151811061084257610841611621565b5b6020026020010181905250818061085890611499565b9250505b808061086790611499565b915050610656565b5050919050565b606060015467ffffffffffffffff81111561089457610893610f93565b5b6040519080825280602002602001820160405280156108cd57816020015b6108ba610d11565b8152602001906001900390816108b25790505b50905060005b8151811015610a7357600260008281526020019081526020016000206040518060800160405290816000820160009054906101000a900473ffffffffffffffffffffffffffffffffffffffff1673ffffffffffffffffffffffffffffffffffffffff1673ffffffffffffffffffffffffffffffffffffffff1681526020016001820160009054906101000a900473ffffffffffffffffffffffffffffffffffffffff1673ffffffffffffffffffffffffffffffffffffffff1673ffffffffffffffffffffffffffffffffffffffff168152602001600282015481526020016003820180546109c0906115a3565b80601f01602080910402602001604051908101604052809291908181526020018280546109ec906115a3565b8015610a395780601f10610a0e57610100808354040283529160200191610a39565b820191906000526020600020905b815481529060010190602001808311610a1c57829003601f168201915b505050505081525050828281518110610a5557610a54611621565b5b60200260200101819052508080610a6b90611499565b9150506108d3565b5090565b606060005b600154811015610bf4576000600260008381526020019081526020016000206002015410158015610b0f57508585604051602001610abb929190611680565b6040516020818303038152906040528051906020012060026000838152602001908152602001600020600301604051602001610af7919061172d565b60405160208183030381529060405280519060200120145b15610be1578383600260008481526020019081526020016000206003019190610b39929190610d65565b50600260008281526020019081526020016000206003018054610b5b906115a3565b80601f0160208091040260200160405190810160405280929190818152602001828054610b87906115a3565b8015610bd45780601f10610ba957610100808354040283529160200191610bd4565b820191906000526020600020905b815481529060010190602001808311610bb757829003601f168201915b5050505050915050610bf6565b8080610bec90611499565b915050610a7c565b505b949350505050565b828054610c0a906115a3565b90600052602060002090601f016020900481019282610c2c5760008555610c73565b82601f10610c4557805160ff1916838001178555610c73565b82800160010185558215610c73579182015b82811115610c72578251825591602001919060010190610c57565b5b509050610c809190610deb565b5090565b828054610c90906115a3565b90600052602060002090601f016020900481019282610cb25760008555610d00565b82601f10610cc35780548555610d00565b82800160010185558215610d0057600052602060002091601f016020900482015b82811115610cff578254825591600101919060010190610ce4565b5b509050610d0d9190610deb565b5090565b6040518060800160405280600073ffffffffffffffffffffffffffffffffffffffff168152602001600073ffffffffffffffffffffffffffffffffffffffff16815260200160008152602001606081525090565b828054610d71906115a3565b90600052602060002090601f016020900481019282610d935760008555610dda565b82601f10610dac57803560ff1916838001178555610dda565b82800160010185558215610dda579182015b82811115610dd9578235825591602001919060010190610dbe565b5b509050610de79190610deb565b5090565b5b80821115610e04576000816000905550600101610dec565b5090565b6000604051905090565b600080fd5b600080fd5b6000819050919050565b610e2f81610e1c565b8114610e3a57600080fd5b50565b600081359050610e4c81610e26565b92915050565b600060208284031215610e6857610e67610e12565b5b6000610e7684828501610e3d565b91505092915050565b600081519050919050565b600082825260208201905092915050565b60005b83811015610eb9578082015181840152602081019050610e9e565b83811115610ec8576000848401525b50505050565b6000601f19601f8301169050919050565b6000610eea82610e7f565b610ef48185610e8a565b9350610f04818560208601610e9b565b610f0d81610ece565b840191505092915050565b600073ffffffffffffffffffffffffffffffffffffffff82169050919050565b6000610f4382610f18565b9050919050565b610f5381610f38565b82525050565b60006040820190508181036000830152610f738185610edf565b9050610f826020830184610f4a565b9392505050565b600080fd5b600080fd5b7f4e487b7100000000000000000000000000000000000000000000000000000000600052604160045260246000fd5b610fcb82610ece565b810181811067ffffffffffffffff82111715610fea57610fe9610f93565b5b80604052505050565b6000610ffd610e08565b90506110098282610fc2565b919050565b600067ffffffffffffffff82111561102957611028610f93565b5b61103282610ece565b9050602081019050919050565b82818337600083830152505050565b600061106161105c8461100e565b610ff3565b90508281526020810184848401111561107d5761107c610f8e565b5b61108884828561103f565b509392505050565b600082601f8301126110a5576110a4610f89565b5b81356110b584826020860161104e565b91505092915050565b6110c781610f38565b81146110d257600080fd5b50565b6000813590506110e4816110be565b92915050565b6000806040838503121561110157611100610e12565b5b600083013567ffffffffffffffff81111561111f5761111e610e17565b5b61112b85828601611090565b925050602061113c858286016110d5565b9150509250929050565b61114f81610e1c565b82525050565b600060208201905061116a6000830184611146565b92915050565b60006020820190506111856000830184610f4a565b92915050565b6000602082840312156111a1576111a0610e12565b5b60006111af848285016110d5565b91505092915050565b600081519050919050565b600082825260208201905092915050565b6000819050602082019050919050565b6111ed81610f38565b82525050565b6111fc81610e1c565b82525050565b600082825260208201905092915050565b600061121e82610e7f565b6112288185611202565b9350611238818560208601610e9b565b61124181610ece565b840191505092915050565b600060808301600083015161126460008601826111e4565b50602083015161127760208601826111e4565b50604083015161128a60408601826111f3565b50606083015184820360608601526112a28282611213565b9150508091505092915050565b60006112bb838361124c565b905092915050565b6000602082019050919050565b60006112db826111b8565b6112e581856111c3565b9350836020820285016112f7856111d4565b8060005b85811015611333578484038952815161131485826112af565b945061131f836112c3565b925060208a019950506001810190506112fb565b50829750879550505050505092915050565b6000602082019050818103600083015261135f81846112d0565b905092915050565b600080fd5b600080fd5b60008083601f84011261138757611386610f89565b5b8235905067ffffffffffffffff8111156113a4576113a3611367565b5b6020830191508360018202830111156113c0576113bf61136c565b5b9250929050565b600080600080604085870312156113e1576113e0610e12565b5b600085013567ffffffffffffffff8111156113ff576113fe610e17565b5b61140b87828801611371565b9450945050602085013567ffffffffffffffff81111561142e5761142d610e17565b5b61143a87828801611371565b925092505092959194509250565b600060208201905081810360008301526114628184610edf565b905092915050565b7f4e487b7100000000000000000000000000000000000000000000000000000000600052601160045260246000fd5b60006114a482610e1c565b91507fffffffffffffffffffffffffffffffffffffffffffffffffffffffffffffffff8214156114d7576114d661146a565b5b600182019050919050565b7f4e6f6e2065736973746520756e20636f72736f20636f6e2071756573746f206960008201527f6400000000000000000000000000000000000000000000000000000000000000602082015250565b600061153e602183610e8a565b9150611549826114e2565b604082019050919050565b6000602082019050818103600083015261156d81611531565b9050919050565b7f4e487b7100000000000000000000000000000000000000000000000000000000600052602260045260246000fd5b600060028204905060018216806115bb57607f821691505b602082108114156115cf576115ce611574565b5b50919050565b60006080820190506115ea6000830187610f4a565b6115f76020830186610f4a565b6116046040830185611146565b81810360608301526116168184610edf565b905095945050505050565b7f4e487b7100000000000000000000000000000000000000000000000000000000600052603260045260246000fd5b600081905092915050565b60006116678385611650565b935061167483858461103f565b82840190509392505050565b600061168d82848661165b565b91508190509392505050565b60008190508160005260206000209050919050565b600081546116bb816115a3565b6116c58186611650565b945060018216600081146116e057600181146116f157611724565b60ff19831686528186019350611724565b6116fa85611699565b60005b8381101561171c578154818901526001820191506020810190506116fd565b838801955050505b50505092915050565b600061173982846116ae565b91508190509291505056fea2646970667358221220cc24b55a71f6ebfc031d12e952c1cfec3e0701187efd664c4c83bacbde05924b64736f6c63430008090033",
  "linkReferences": {},
  "deployedLinkReferences": {}
}