{
  "_format": "hh-sol-artifact-1",
  "contractName": "Reviews",
  "sourceName": "contracts/Reviews.sol",
  "abi": [
    {
      "inputs": [],
      "stateMutability": "nonpayable",
      "type": "constructor"
    },
    {
      "anonymous": false,
      "inputs": [
        {
          "indexed": false,
          "internalType": "address",
          "name": "creator",
          "type": "address"
        },
        {
          "indexed": false,
          "internalType": "address",
          "name": "reviewed",
          "type": "address"
        },
        {
          "indexed": false,
          "internalType": "uint256",
          "name": "id",
          "type": "uint256"
        },
        {
          "indexed": false,
          "internalType": "string",
          "name": "hash",
          "type": "string"
        }
      ],
      "name": "reviewCreated",
      "type": "event"
    },
    {
      "inputs": [
        {
          "internalType": "string",
          "name": "_postHash",
          "type": "string"
        },
        {
          "internalType": "address",
          "name": "reviewed",
          "type": "address"
        }
      ],
      "name": "addReview",
      "outputs": [],
      "stateMutability": "nonpayable",
      "type": "function"
    },
    {
      "inputs": [
        {
          "internalType": "string",
          "name": "oldHash",
          "type": "string"
        },
        {
          "internalType": "string",
          "name": "newHash",
          "type": "string"
        }
      ],
      "name": "changeReview",
      "outputs": [
        {
          "internalType": "string",
          "name": "",
          "type": "string"
        }
      ],
      "stateMutability": "nonpayable",
      "type": "function"
    },
    {
      "inputs": [
        {
          "internalType": "uint256",
          "name": "idReview",
          "type": "uint256"
        }
      ],
      "name": "deleteReview",
      "outputs": [],
      "stateMutability": "nonpayable",
      "type": "function"
    },
    {
      "inputs": [],
      "name": "getAllReview",
      "outputs": [
        {
          "components": [
            {
              "internalType": "address",
              "name": "creator",
              "type": "address"
            },
            {
              "internalType": "address",
              "name": "reviewed",
              "type": "address"
            },
            {
              "internalType": "uint256",
              "name": "id",
              "type": "uint256"
            },
            {
              "internalType": "string",
              "name": "hash",
              "type": "string"
            }
          ],
          "internalType": "struct Reviews.review[]",
          "name": "_reviews",
          "type": "tuple[]"
        }
      ],
      "stateMutability": "view",
      "type": "function"
    },
    {
      "inputs": [
        {
          "internalType": "address",
          "name": "userid",
          "type": "address"
        }
      ],
      "name": "getAllReviewByUserId",
      "outputs": [
        {
          "components": [
            {
              "internalType": "address",
              "name": "creator",
              "type": "address"
            },
            {
              "internalType": "address",
              "name": "reviewed",
              "type": "address"
            },
            {
              "internalType": "uint256",
              "name": "id",
              "type": "uint256"
            },
            {
              "internalType": "string",
              "name": "hash",
              "type": "string"
            }
          ],
          "internalType": "struct Reviews.review[]",
          "name": "_reviews",
          "type": "tuple[]"
        }
      ],
      "stateMutability": "view",
      "type": "function"
    },
    {
      "inputs": [
        {
          "internalType": "uint256",
          "name": "id",
          "type": "uint256"
        }
      ],
      "name": "getReview",
      "outputs": [
        {
          "internalType": "string",
          "name": "",
          "type": "string"
        },
        {
          "internalType": "address",
          "name": "",
          "type": "address"
        }
      ],
      "stateMutability": "view",
      "type": "function"
    },
    {
      "inputs": [],
      "name": "getReviewNumber",
      "outputs": [
        {
          "internalType": "uint256",
          "name": "",
          "type": "uint256"
        }
      ],
      "stateMutability": "view",
      "type": "function"
    },
    {
      "inputs": [],
      "name": "owner",
      "outputs": [
        {
          "internalType": "address",
          "name": "",
          "type": "address"
        }
      ],
      "stateMutability": "view",
      "type": "function"
    }
  ],
  "bytecode": "0x608060405234801561001057600080fd5b506000600181905550336000806101000a81548173ffffffffffffffffffffffffffffffffffffffff021916908373ffffffffffffffffffffffffffffffffffffffff160217905550611779806100686000396000f3fe608060405234801561001057600080fd5b50600436106100875760003560e01c8063990581b61161005b578063990581b614610102578063a4db678414610133578063d71e489014610163578063dd1401601461017f57610087565b8062059adf1461008c57806366de3aa6146100a85780638da5cb5b146100c6578063959109f4146100e4575b600080fd5b6100a660048036038101906100a19190610fbf565b6101af565b005b6100b06103df565b6040516100bd9190611034565b60405180910390f35b6100ce6103e9565b6040516100db919061105e565b60405180910390f35b6100ec61040d565b6040516100f99190611244565b60405180910390f35b61011c60048036038101906101179190611292565b61060e565b60405161012a929190611309565b60405180910390f35b61014d60048036038101906101489190611399565b61072c565b60405161015a919061141a565b60405180910390f35b61017d60048036038101906101789190611292565b6108b3565b005b6101996004803603810190610194919061143c565b61097f565b6040516101a69190611244565b60405180910390f35b60006002600060015481526020019081526020016000209050828160030190805190602001906101e0929190610bfd565b506001548160020181905550338160000160006101000a81548173ffffffffffffffffffffffffffffffffffffffff021916908373ffffffffffffffffffffffffffffffffffffffff160217905550818160010160006101000a81548173ffffffffffffffffffffffffffffffffffffffff021916908373ffffffffffffffffffffffffffffffffffffffff160217905550806002600060015481526020019081526020016000206000820160009054906101000a900473ffffffffffffffffffffffffffffffffffffffff168160000160006101000a81548173ffffffffffffffffffffffffffffffffffffffff021916908373ffffffffffffffffffffffffffffffffffffffff1602179055506001820160009054906101000a900473ffffffffffffffffffffffffffffffffffffffff168160010160006101000a81548173ffffffffffffffffffffffffffffffffffffffff021916908373ffffffffffffffffffffffffffffffffffffffff16021790555060028201548160020155600382018160030190805461037490611498565b61037f929190610c83565b5090505060016000815480929190610396906114f9565b91905055507f9197e47cd32386c5b1824b07b764e0277e38a204faad37953a47f18cc636ddac3383600154866040516103d29493929190611542565b60405180910390a1505050565b6000600154905090565b60008054906101000a900473ffffffffffffffffffffffffffffffffffffffff1681565b606060015467ffffffffffffffff81111561042b5761042a610e36565b5b60405190808252806020026020018201604052801561046457816020015b610451610d10565b8152602001906001900390816104495790505b50905060005b815181101561060a57600260008281526020019081526020016000206040518060800160405290816000820160009054906101000a900473ffffffffffffffffffffffffffffffffffffffff1673ffffffffffffffffffffffffffffffffffffffff1673ffffffffffffffffffffffffffffffffffffffff1681526020016001820160009054906101000a900473ffffffffffffffffffffffffffffffffffffffff1673ffffffffffffffffffffffffffffffffffffffff1673ffffffffffffffffffffffffffffffffffffffff1681526020016002820154815260200160038201805461055790611498565b80601f016020809104026020016040519081016040528092919081815260200182805461058390611498565b80156105d05780601f106105a5576101008083540402835291602001916105d0565b820191906000526020600020905b8154815290600101906020018083116105b357829003601f168201915b5050505050815250508282815181106105ec576105eb61158e565b5b60200260200101819052508080610602906114f9565b91505061046a565b5090565b606060006001548310610656576040517f08c379a000000000000000000000000000000000000000000000000000000000815260040161064d9061162f565b60405180910390fd5b6000600260008581526020019081526020016000209050806003018160000160009054906101000a900473ffffffffffffffffffffffffffffffffffffffff168180546106a290611498565b80601f01602080910402602001604051908101604052809291908181526020018280546106ce90611498565b801561071b5780601f106106f05761010080835404028352916020019161071b565b820191906000526020600020905b8154815290600101906020018083116106fe57829003601f168201915b505050505091509250925050915091565b606060005b6001548110156108a95760006002600083815260200190815260200160002060020154101580156107c45750858560405160200161077092919061167f565b60405160208183030381529060405280519060200120600260008381526020019081526020016000206003016040516020016107ac919061172c565b60405160208183030381529060405280519060200120145b156108965783836002600084815260200190815260200160002060030191906107ee929190610d64565b5060026000828152602001908152602001600020600301805461081090611498565b80601f016020809104026020016040519081016040528092919081815260200182805461083c90611498565b80156108895780601f1061085e57610100808354040283529160200191610889565b820191906000526020600020905b81548152906001019060200180831161086c57829003601f168201915b50505050509150506108ab565b80806108a1906114f9565b915050610731565b505b949350505050565b60005b60015481101561097a5760006002600083815260200190815260200160002060020154101580156108fc5750816002600083815260200190815260200160002060020154145b15610967576040518060400160405280600281526020017f2d31000000000000000000000000000000000000000000000000000000000000815250600260008381526020019081526020016000206003019080519060200190610960929190610bfd565b505061097c565b8080610972906114f9565b9150506108b6565b505b50565b606060015467ffffffffffffffff81111561099d5761099c610e36565b5b6040519080825280602002602001820160405280156109d657816020015b6109c3610d10565b8152602001906001900390816109bb5790505b5090506000805b8251811015610bf6578373ffffffffffffffffffffffffffffffffffffffff166002600083815260200190815260200160002060010160009054906101000a900473ffffffffffffffffffffffffffffffffffffffff1673ffffffffffffffffffffffffffffffffffffffff161415610be357600260008281526020019081526020016000206040518060800160405290816000820160009054906101000a900473ffffffffffffffffffffffffffffffffffffffff1673ffffffffffffffffffffffffffffffffffffffff1673ffffffffffffffffffffffffffffffffffffffff1681526020016001820160009054906101000a900473ffffffffffffffffffffffffffffffffffffffff1673ffffffffffffffffffffffffffffffffffffffff1673ffffffffffffffffffffffffffffffffffffffff16815260200160028201548152602001600382018054610b3490611498565b80601f0160208091040260200160405190810160405280929190818152602001828054610b6090611498565b8015610bad5780601f10610b8257610100808354040283529160200191610bad565b820191906000526020600020905b815481529060010190602001808311610b9057829003601f168201915b505050505081525050838381518110610bc957610bc861158e565b5b60200260200101819052508180610bdf906114f9565b9250505b8080610bee906114f9565b9150506109dd565b5050919050565b828054610c0990611498565b90600052602060002090601f016020900481019282610c2b5760008555610c72565b82601f10610c4457805160ff1916838001178555610c72565b82800160010185558215610c72579182015b82811115610c71578251825591602001919060010190610c56565b5b509050610c7f9190610dea565b5090565b828054610c8f90611498565b90600052602060002090601f016020900481019282610cb15760008555610cff565b82601f10610cc25780548555610cff565b82800160010185558215610cff57600052602060002091601f016020900482015b82811115610cfe578254825591600101919060010190610ce3565b5b509050610d0c9190610dea565b5090565b6040518060800160405280600073ffffffffffffffffffffffffffffffffffffffff168152602001600073ffffffffffffffffffffffffffffffffffffffff16815260200160008152602001606081525090565b828054610d7090611498565b90600052602060002090601f016020900481019282610d925760008555610dd9565b82601f10610dab57803560ff1916838001178555610dd9565b82800160010185558215610dd9579182015b82811115610dd8578235825591602001919060010190610dbd565b5b509050610de69190610dea565b5090565b5b80821115610e03576000816000905550600101610deb565b5090565b6000604051905090565b600080fd5b600080fd5b600080fd5b600080fd5b6000601f19601f8301169050919050565b7f4e487b7100000000000000000000000000000000000000000000000000000000600052604160045260246000fd5b610e6e82610e25565b810181811067ffffffffffffffff82111715610e8d57610e8c610e36565b5b80604052505050565b6000610ea0610e07565b9050610eac8282610e65565b919050565b600067ffffffffffffffff821115610ecc57610ecb610e36565b5b610ed582610e25565b9050602081019050919050565b82818337600083830152505050565b6000610f04610eff84610eb1565b610e96565b905082815260208101848484011115610f2057610f1f610e20565b5b610f2b848285610ee2565b509392505050565b600082601f830112610f4857610f47610e1b565b5b8135610f58848260208601610ef1565b91505092915050565b600073ffffffffffffffffffffffffffffffffffffffff82169050919050565b6000610f8c82610f61565b9050919050565b610f9c81610f81565b8114610fa757600080fd5b50565b600081359050610fb981610f93565b92915050565b60008060408385031215610fd657610fd5610e11565b5b600083013567ffffffffffffffff811115610ff457610ff3610e16565b5b61100085828601610f33565b925050602061101185828601610faa565b9150509250929050565b6000819050919050565b61102e8161101b565b82525050565b60006020820190506110496000830184611025565b92915050565b61105881610f81565b82525050565b6000602082019050611073600083018461104f565b92915050565b600081519050919050565b600082825260208201905092915050565b6000819050602082019050919050565b6110ae81610f81565b82525050565b6110bd8161101b565b82525050565b600081519050919050565b600082825260208201905092915050565b60005b838110156110fd5780820151818401526020810190506110e2565b8381111561110c576000848401525b50505050565b600061111d826110c3565b61112781856110ce565b93506111378185602086016110df565b61114081610e25565b840191505092915050565b600060808301600083015161116360008601826110a5565b50602083015161117660208601826110a5565b50604083015161118960408601826110b4565b50606083015184820360608601526111a18282611112565b9150508091505092915050565b60006111ba838361114b565b905092915050565b6000602082019050919050565b60006111da82611079565b6111e48185611084565b9350836020820285016111f685611095565b8060005b85811015611232578484038952815161121385826111ae565b945061121e836111c2565b925060208a019950506001810190506111fa565b50829750879550505050505092915050565b6000602082019050818103600083015261125e81846111cf565b905092915050565b61126f8161101b565b811461127a57600080fd5b50565b60008135905061128c81611266565b92915050565b6000602082840312156112a8576112a7610e11565b5b60006112b68482850161127d565b91505092915050565b600082825260208201905092915050565b60006112db826110c3565b6112e581856112bf565b93506112f58185602086016110df565b6112fe81610e25565b840191505092915050565b6000604082019050818103600083015261132381856112d0565b9050611332602083018461104f565b9392505050565b600080fd5b600080fd5b60008083601f84011261135957611358610e1b565b5b8235905067ffffffffffffffff81111561137657611375611339565b5b6020830191508360018202830111156113925761139161133e565b5b9250929050565b600080600080604085870312156113b3576113b2610e11565b5b600085013567ffffffffffffffff8111156113d1576113d0610e16565b5b6113dd87828801611343565b9450945050602085013567ffffffffffffffff811115611400576113ff610e16565b5b61140c87828801611343565b925092505092959194509250565b6000602082019050818103600083015261143481846112d0565b905092915050565b60006020828403121561145257611451610e11565b5b600061146084828501610faa565b91505092915050565b7f4e487b7100000000000000000000000000000000000000000000000000000000600052602260045260246000fd5b600060028204905060018216806114b057607f821691505b602082108114156114c4576114c3611469565b5b50919050565b7f4e487b7100000000000000000000000000000000000000000000000000000000600052601160045260246000fd5b60006115048261101b565b91507fffffffffffffffffffffffffffffffffffffffffffffffffffffffffffffffff821415611537576115366114ca565b5b600182019050919050565b6000608082019050611557600083018761104f565b611564602083018661104f565b6115716040830185611025565b818103606083015261158381846112d0565b905095945050505050565b7f4e487b7100000000000000000000000000000000000000000000000000000000600052603260045260246000fd5b7f4e6f6e2065736973746520756e20636f72736f20636f6e2071756573746f206960008201527f6400000000000000000000000000000000000000000000000000000000000000602082015250565b60006116196021836112bf565b9150611624826115bd565b604082019050919050565b600060208201905081810360008301526116488161160c565b9050919050565b600081905092915050565b6000611666838561164f565b9350611673838584610ee2565b82840190509392505050565b600061168c82848661165a565b91508190509392505050565b60008190508160005260206000209050919050565b600081546116ba81611498565b6116c4818661164f565b945060018216600081146116df57600181146116f057611723565b60ff19831686528186019350611723565b6116f985611698565b60005b8381101561171b578154818901526001820191506020810190506116fc565b838801955050505b50505092915050565b600061173882846116ad565b91508190509291505056fea2646970667358221220fc2bdc2e3949187904b2aa204252def2e24888220f767c7277fc446c04c9f0e364736f6c63430008090033",
  "linkReferences": {},
  "deployedLinkReferences": {}
}