{
  "_format": "hh-sol-artifact-1",
  "contractName": "UserDetails",
  "sourceName": "contracts/UserDetails.sol",
  "abi": [
    {
      "inputs": [],
      "stateMutability": "nonpayable",
      "type": "constructor"
    },
    {
      "anonymous": false,
      "inputs": [
        {
          "indexed": false,
          "internalType": "address",
          "name": "user",
          "type": "address"
        },
        {
          "indexed": false,
          "internalType": "string",
          "name": "username",
          "type": "string"
        },
        {
          "indexed": false,
          "internalType": "string",
          "name": "email",
          "type": "string"
        },
        {
          "indexed": false,
          "internalType": "string",
          "name": "hash",
          "type": "string"
        }
      ],
      "name": "userCreated",
      "type": "event"
    },
    {
      "inputs": [
        {
          "internalType": "address",
          "name": "user",
          "type": "address"
        },
        {
          "internalType": "string",
          "name": "username",
          "type": "string"
        },
        {
          "internalType": "string",
          "name": "email",
          "type": "string"
        },
        {
          "internalType": "string",
          "name": "hash",
          "type": "string"
        }
      ],
      "name": "addUser",
      "outputs": [],
      "stateMutability": "nonpayable",
      "type": "function"
    },
    {
      "inputs": [
        {
          "internalType": "string",
          "name": "oldHash",
          "type": "string"
        },
        {
          "internalType": "string",
          "name": "newHash",
          "type": "string"
        },
        {
          "internalType": "string",
          "name": "username",
          "type": "string"
        },
        {
          "internalType": "string",
          "name": "email",
          "type": "string"
        }
      ],
      "name": "changeDetails",
      "outputs": [
        {
          "internalType": "string",
          "name": "",
          "type": "string"
        }
      ],
      "stateMutability": "nonpayable",
      "type": "function"
    },
    {
      "inputs": [
        {
          "internalType": "address",
          "name": "userid",
          "type": "address"
        }
      ],
      "name": "getUser",
      "outputs": [
        {
          "internalType": "string",
          "name": "_users",
          "type": "string"
        }
      ],
      "stateMutability": "view",
      "type": "function"
    },
    {
      "inputs": [],
      "name": "owner",
      "outputs": [
        {
          "internalType": "address",
          "name": "",
          "type": "address"
        }
      ],
      "stateMutability": "view",
      "type": "function"
    }
  ],
  "bytecode": "0x608060405234801561001057600080fd5b506000600181905550336000806101000a81548173ffffffffffffffffffffffffffffffffffffffff021916908373ffffffffffffffffffffffffffffffffffffffff160217905550610ebd806100686000396000f3fe608060405234801561001057600080fd5b506004361061004c5760003560e01c80636f77926b146100515780638da5cb5b14610081578063c6361c221461009f578063ebd9813c146100bb575b600080fd5b61006b6004803603810190610066919061080b565b6100eb565b60405161007891906108d1565b60405180910390f35b610089610228565b6040516100969190610902565b60405180910390f35b6100b960048036038101906100b49190610a52565b61024c565b005b6100d560048036038101906100d09190610b6d565b61042f565b6040516100e291906108d1565b60405180910390f35b60606000805b600154811015610220578373ffffffffffffffffffffffffffffffffffffffff166002600083815260200190815260200160002060000160009054906101000a900473ffffffffffffffffffffffffffffffffffffffff1673ffffffffffffffffffffffffffffffffffffffff16141561020d5760026000828152602001908152602001600020600301805461018690610c85565b80601f01602080910402602001604051908101604052809291908181526020018280546101b290610c85565b80156101ff5780601f106101d4576101008083540402835291602001916101ff565b820191906000526020600020905b8154815290600101906020018083116101e257829003601f168201915b505050505092505050610223565b808061021890610cf0565b9150506100f1565b50505b919050565b60008054906101000a900473ffffffffffffffffffffffffffffffffffffffff1681565b600060026000600154815260200190815260200160002090508181600301908051906020019061027d9291906105e3565b50828160020190805190602001906102969291906105e3565b50838160010190805190602001906102af9291906105e3565b50338160000160006101000a81548173ffffffffffffffffffffffffffffffffffffffff021916908373ffffffffffffffffffffffffffffffffffffffff160217905550806002600060015481526020019081526020016000206000820160009054906101000a900473ffffffffffffffffffffffffffffffffffffffff168160000160006101000a81548173ffffffffffffffffffffffffffffffffffffffff021916908373ffffffffffffffffffffffffffffffffffffffff160217905550600182018160010190805461038490610c85565b61038f929190610669565b5060028201816002019080546103a490610c85565b6103af929190610669565b5060038201816003019080546103c490610c85565b6103cf929190610669565b50905050600160008154809291906103e690610cf0565b91905055507f47092e69d933229ffa493f4b845202d3613fcaf3816741d878f6eb7902cd3a5a858585856040516104209493929190610d39565b60405180910390a15050505050565b606060005b6001548110156105d5578989604051602001610451929190610dc3565b604051602081830303815290604052805190602001206002600083815260200190815260200160002060030160405160200161048d9190610e70565b6040516020818303038152906040528051906020012014156105c25787876002600084815260200190815260200160002060030191906104ce9291906106f6565b5085856002600084815260200190815260200160002060010191906104f49291906106f6565b50838360026000848152602001908152602001600020600201919061051a9291906106f6565b5060026000828152602001908152602001600020600301805461053c90610c85565b80601f016020809104026020016040519081016040528092919081815260200182805461056890610c85565b80156105b55780601f1061058a576101008083540402835291602001916105b5565b820191906000526020600020905b81548152906001019060200180831161059857829003601f168201915b50505050509150506105d7565b80806105cd90610cf0565b915050610434565b505b98975050505050505050565b8280546105ef90610c85565b90600052602060002090601f0160209004810192826106115760008555610658565b82601f1061062a57805160ff1916838001178555610658565b82800160010185558215610658579182015b8281111561065757825182559160200191906001019061063c565b5b509050610665919061077c565b5090565b82805461067590610c85565b90600052602060002090601f01602090048101928261069757600085556106e5565b82601f106106a857805485556106e5565b828001600101855582156106e557600052602060002091601f016020900482015b828111156106e45782548255916001019190600101906106c9565b5b5090506106f2919061077c565b5090565b82805461070290610c85565b90600052602060002090601f016020900481019282610724576000855561076b565b82601f1061073d57803560ff191683800117855561076b565b8280016001018555821561076b579182015b8281111561076a57823582559160200191906001019061074f565b5b509050610778919061077c565b5090565b5b8082111561079557600081600090555060010161077d565b5090565b6000604051905090565b600080fd5b600080fd5b600073ffffffffffffffffffffffffffffffffffffffff82169050919050565b60006107d8826107ad565b9050919050565b6107e8816107cd565b81146107f357600080fd5b50565b600081359050610805816107df565b92915050565b600060208284031215610821576108206107a3565b5b600061082f848285016107f6565b91505092915050565b600081519050919050565b600082825260208201905092915050565b60005b83811015610872578082015181840152602081019050610857565b83811115610881576000848401525b50505050565b6000601f19601f8301169050919050565b60006108a382610838565b6108ad8185610843565b93506108bd818560208601610854565b6108c681610887565b840191505092915050565b600060208201905081810360008301526108eb8184610898565b905092915050565b6108fc816107cd565b82525050565b600060208201905061091760008301846108f3565b92915050565b600080fd5b600080fd5b7f4e487b7100000000000000000000000000000000000000000000000000000000600052604160045260246000fd5b61095f82610887565b810181811067ffffffffffffffff8211171561097e5761097d610927565b5b80604052505050565b6000610991610799565b905061099d8282610956565b919050565b600067ffffffffffffffff8211156109bd576109bc610927565b5b6109c682610887565b9050602081019050919050565b82818337600083830152505050565b60006109f56109f0846109a2565b610987565b905082815260208101848484011115610a1157610a10610922565b5b610a1c8482856109d3565b509392505050565b600082601f830112610a3957610a3861091d565b5b8135610a498482602086016109e2565b91505092915050565b60008060008060808587031215610a6c57610a6b6107a3565b5b6000610a7a878288016107f6565b945050602085013567ffffffffffffffff811115610a9b57610a9a6107a8565b5b610aa787828801610a24565b935050604085013567ffffffffffffffff811115610ac857610ac76107a8565b5b610ad487828801610a24565b925050606085013567ffffffffffffffff811115610af557610af46107a8565b5b610b0187828801610a24565b91505092959194509250565b600080fd5b600080fd5b60008083601f840112610b2d57610b2c61091d565b5b8235905067ffffffffffffffff811115610b4a57610b49610b0d565b5b602083019150836001820283011115610b6657610b65610b12565b5b9250929050565b6000806000806000806000806080898b031215610b8d57610b8c6107a3565b5b600089013567ffffffffffffffff811115610bab57610baa6107a8565b5b610bb78b828c01610b17565b9850985050602089013567ffffffffffffffff811115610bda57610bd96107a8565b5b610be68b828c01610b17565b9650965050604089013567ffffffffffffffff811115610c0957610c086107a8565b5b610c158b828c01610b17565b9450945050606089013567ffffffffffffffff811115610c3857610c376107a8565b5b610c448b828c01610b17565b92509250509295985092959890939650565b7f4e487b7100000000000000000000000000000000000000000000000000000000600052602260045260246000fd5b60006002820490506001821680610c9d57607f821691505b60208210811415610cb157610cb0610c56565b5b50919050565b7f4e487b7100000000000000000000000000000000000000000000000000000000600052601160045260246000fd5b6000819050919050565b6000610cfb82610ce6565b91507fffffffffffffffffffffffffffffffffffffffffffffffffffffffffffffffff821415610d2e57610d2d610cb7565b5b600182019050919050565b6000608082019050610d4e60008301876108f3565b8181036020830152610d608186610898565b90508181036040830152610d748185610898565b90508181036060830152610d888184610898565b905095945050505050565b600081905092915050565b6000610daa8385610d93565b9350610db78385846109d3565b82840190509392505050565b6000610dd0828486610d9e565b91508190509392505050565b60008190508160005260206000209050919050565b60008154610dfe81610c85565b610e088186610d93565b94506001821660008114610e235760018114610e3457610e67565b60ff19831686528186019350610e67565b610e3d85610ddc565b60005b83811015610e5f57815481890152600182019150602081019050610e40565b838801955050505b50505092915050565b6000610e7c8284610df1565b91508190509291505056fea2646970667358221220b987d4b659c758f36f4955a5d75cc218b98b1fdb319dd0846a6e13d781b07ba664736f6c63430008090033",
  "linkReferences": {},
  "deployedLinkReferences": {}
}